{"address":"0x512F7469BcC83089497506b5df64c6E246B39925","bytecode":"0x60806040523480156200001157600080fd5b506200001d3362000023565b62000073565b600080546001600160a01b038381166001600160a01b0319831681178455604051919092169283917f8be0079c531659141344cd1fd0a4f28419497f9722a3daafe3b4186f6b6457e09190a35050565b61339c80620000836000396000f3fe608060405234801561001057600080fd5b50600436106100f55760003560e01c80638f88708b11610097578063c0ad003d11610066578063c0ad003d14610456578063e673313614610469578063f2fde38b1461049f578063f83b773b146104b257600080fd5b80638f88708b146103fc578063a52c101e1461040f578063a57465e114610422578063bf9be0821461044357600080fd5b80632303b11f116100d35780632303b11f146101c25780632765e88f146102d8578063715018a6146103d45780638da5cb5b146103de57600080fd5b80630895709c146100fa5780631338292614610123578063150b7a021461017e575b600080fd5b61010d610108366004612add565b6104c5565b60405161011a9190612f2a565b60405180910390f35b610159610131366004612db6565b60009081526005602052604090205473ffffffffffffffffffffffffffffffffffffffff1690565b60405173ffffffffffffffffffffffffffffffffffffffff909116815260200161011a565b61019161018c366004612b17565b61053e565b6040517fffffffff00000000000000000000000000000000000000000000000000000000909116815260200161011a565b6102cb6101d0366004612db6565b6040805161010081018252600080825260208201819052918101829052606081018290526080810182905260a0810182905260c0810182905260e081019190915250600090815260036020818152604092839020835161010081018552815473ffffffffffffffffffffffffffffffffffffffff908116825260018301548082169483019490945260ff7401000000000000000000000000000000000000000085048116968301969096527501000000000000000000000000000000000000000000909304909416606085015260028101548216608085015291820154811660a084015260048201541660c08301526005015460e082015290565b60405161011a9190612f6e565b6103756102e6366004612db6565b600360208190526000918252604090912080546001820154600283015493830154600484015460059094015473ffffffffffffffffffffffffffffffffffffffff938416958385169560ff740100000000000000000000000000000000000000008604811696750100000000000000000000000000000000000000000090960416949182169382169291169088565b6040805173ffffffffffffffffffffffffffffffffffffffff998a168152978916602089015260ff968716908801529390941660608601529085166080850152841660a0840152921660c082015260e08101919091526101000161011a565b6103dc610ff3565b005b60005473ffffffffffffffffffffffffffffffffffffffff16610159565b6103dc61040a366004612db6565b611007565b6103dc61041d366004612db6565b611129565b610435610430366004612bb6565b6111b6565b60405190815260200161011a565b6103dc610451366004612db6565b6111e7565b6103dc610464366004612be2565b611678565b610159610477366004612db6565b60056020526000908152604090205473ffffffffffffffffffffffffffffffffffffffff1681565b6103dc6104ad366004612add565b6116bc565b6103dc6104c0366004612be2565b611773565b73ffffffffffffffffffffffffffffffffffffffff811660009081526004602090815260409182902080548351818402810184019094528084526060939283018282801561053257602002820191906000526020600020905b81548152602001906001019080831161051e575b50505050509050919050565b60003373c36442b4a4522e871399cd717abdd847ab11fe88146105c2576040517f08c379a000000000000000000000000000000000000000000000000000000000815260206004820152601660248201527f4e6f74206120756e697377617020706f736974696f6e0000000000000000000060448201526064015b60405180910390fd5b600080600080600073c36442b4a4522e871399cd717abdd847ab11fe8873ffffffffffffffffffffffffffffffffffffffff166399fbab888a6040518263ffffffff1660e01b815260040161061991815260200190565b6101806040518083038186803b15801561063257600080fd5b505afa158015610646573d6000803e3d6000fd5b505050506040513d601f19601f8201168201806040525081019061066a9190612e0e565b50506040517fd4c282a300000000000000000000000000000000000000000000000000000000815273ffffffffffffffffffffffffffffffffffffffff8916600482015273eeeeeeeeeeeeeeeeeeeeeeeeeeeeeeeeeeeeeeee6024820152979e50959c50939a5091985096507347fb2585d2c56fe188d0e6ec628a38b74fceeedf955063d4c282a3945050604490920191506107039050565b60206040518083038186803b15801561071b57600080fd5b505afa15801561072f573d6000803e3d6000fd5b505050506040513d601f19601f820116820180604052508101906107539190612ce0565b61075c57600080fd5b6040517fd4c282a300000000000000000000000000000000000000000000000000000000815273ffffffffffffffffffffffffffffffffffffffff8516600482015273eeeeeeeeeeeeeeeeeeeeeeeeeeeeeeeeeeeeeeee60248201527347fb2585d2c56fe188d0e6ec628a38b74fceeedf9063d4c282a39060440160206040518083038186803b1580156107ef57600080fd5b505afa158015610803573d6000803e3d6000fd5b505050506040513d601f19601f820116820180604052508101906108279190612ce0565b61083057600080fd5b6040518061010001604052808673ffffffffffffffffffffffffffffffffffffffff1681526020018573ffffffffffffffffffffffffffffffffffffffff1681526020018673ffffffffffffffffffffffffffffffffffffffff1663313ce5676040518163ffffffff1660e01b815260040160206040518083038186803b1580156108ba57600080fd5b505afa1580156108ce573d6000803e3d6000fd5b505050506040513d601f19601f820116820180604052508101906108f29190612df3565b60ff1681526020018573ffffffffffffffffffffffffffffffffffffffff1663313ce5676040518163ffffffff1660e01b815260040160206040518083038186803b15801561094057600080fd5b505afa158015610954573d6000803e3d6000fd5b505050506040513d601f19601f820116820180604052508101906109789190612df3565b60ff168152602001610989846117b3565b73ffffffffffffffffffffffffffffffffffffffff1681526020016109ad836117b3565b73ffffffffffffffffffffffffffffffffffffffff90811682526040517f1698ee820000000000000000000000000000000000000000000000000000000081528882166004820152908716602482015262ffffff86166044820152602090910190731f98431c8ad98523631ae4a59f267346ea31f98490631698ee829060640160206040518083038186803b158015610a4557600080fd5b505afa158015610a59573d6000803e3d6000fd5b505050506040513d601f19601f82011682018060405250810190610a7d9190612afa565b73ffffffffffffffffffffffffffffffffffffffff1681526020018a815250600360008b815260200190815260200160002060008201518160000160006101000a81548173ffffffffffffffffffffffffffffffffffffffff021916908373ffffffffffffffffffffffffffffffffffffffff16021790555060208201518160010160006101000a81548173ffffffffffffffffffffffffffffffffffffffff021916908373ffffffffffffffffffffffffffffffffffffffff16021790555060408201518160010160146101000a81548160ff021916908360ff16021790555060608201518160010160156101000a81548160ff021916908360ff16021790555060808201518160020160006101000a81548173ffffffffffffffffffffffffffffffffffffffff021916908373ffffffffffffffffffffffffffffffffffffffff16021790555060a08201518160030160006101000a81548173ffffffffffffffffffffffffffffffffffffffff021916908373ffffffffffffffffffffffffffffffffffffffff16021790555060c08201518160040160006101000a81548173ffffffffffffffffffffffffffffffffffffffff021916908373ffffffffffffffffffffffffffffffffffffffff16021790555060e082015181600501559050506000600260008b815260200190815260200160002060008773ffffffffffffffffffffffffffffffffffffffff1673ffffffffffffffffffffffffffffffffffffffff168152602001908152602001600020819055506000600260008b815260200190815260200160002060008673ffffffffffffffffffffffffffffffffffffffff1673ffffffffffffffffffffffffffffffffffffffff16815260200190815260200160002081905550600460008b73ffffffffffffffffffffffffffffffffffffffff1673ffffffffffffffffffffffffffffffffffffffff16815260200190815260200160002089908060018154018082558091505060019003906000526020600020016000909190919091505589600560008b815260200190815260200160002060006101000a81548173ffffffffffffffffffffffffffffffffffffffff021916908373ffffffffffffffffffffffffffffffffffffffff1602179055508473ffffffffffffffffffffffffffffffffffffffff1663dd62ed3e3073c36442b4a4522e871399cd717abdd847ab11fe886040518363ffffffff1660e01b8152600401610e3692919073ffffffffffffffffffffffffffffffffffffffff92831681529116602082015260400190565b60206040518083038186803b158015610e4e57600080fd5b505afa158015610e62573d6000803e3d6000fd5b505050506040513d601f19601f82011682018060405250810190610e869190612ce0565b610ec957610ec98573c36442b4a4522e871399cd717abdd847ab11fe887fffffffffffffffffffffffffffffffffffffffffffffffffffffffffffffffff611c25565b6040517fdd62ed3e00000000000000000000000000000000000000000000000000000000815230600482015273c36442b4a4522e871399cd717abdd847ab11fe88602482015273ffffffffffffffffffffffffffffffffffffffff85169063dd62ed3e9060440160206040518083038186803b158015610f4857600080fd5b505afa158015610f5c573d6000803e3d6000fd5b505050506040513d601f19601f82011682018060405250810190610f809190612ce0565b610fc357610fc38473c36442b4a4522e871399cd717abdd847ab11fe887fffffffffffffffffffffffffffffffffffffffffffffffffffffffffffffffff611c25565b507f150b7a02000000000000000000000000000000000000000000000000000000009a9950505050505050505050565b610ffb611d8e565b6110056000611e0f565b565b336000908152600460205260408120805483908110611028576110286132e6565b6000918252602090912001546040517f42842e0e0000000000000000000000000000000000000000000000000000000081523060048201523360248201526044810182905290915073c36442b4a4522e871399cd717abdd847ab11fe88906342842e0e90606401600060405180830381600087803b1580156110a957600080fd5b505af11580156110bd573d6000803e3d6000fd5b5050336000908152600460205260409020805490925084915081106110e4576110e46132e6565b6000918252602080832090910182905591815260059091526040902080547fffffffffffffffffffffffff000000000000000000000000000000000000000016905550565b6040517f42842e0e0000000000000000000000000000000000000000000000000000000081523360048201523060248201526044810182905273c36442b4a4522e871399cd717abdd847ab11fe88906342842e0e90606401600060405180830381600087803b15801561119b57600080fd5b505af11580156111af573d6000803e3d6000fd5b5050505050565b600460205281600052604060002081815481106111d257600080fd5b90600052602060002001600091509150505481565b6112366040518061012001604052806000815260200160008152602001600081526020016000815260200160008152602001600081526020016000815260200160008152602001600081525090565b600082815260036020818152604092839020835161010081018552815473ffffffffffffffffffffffffffffffffffffffff908116825260018301548082168386015260ff7401000000000000000000000000000000000000000082048116848901527501000000000000000000000000000000000000000000909104166060808401919091526002840154821660808085019190915295840154821660a0840152600480850154831660c085015260059094015460e084015286519586018752888652309486019485526fffffffffffffffffffffffffffffffff86880181815291870181815297517ffc6f78650000000000000000000000000000000000000000000000000000000081528751958101959095529451909116602484015251831660448301529351909116606482015273c36442b4a4522e871399cd717abdd847ab11fe889063fc6f7865906084016040805180830381600087803b1580156113a057600080fd5b505af11580156113b4573d6000803e3d6000fd5b505050506040513d601f19601f820116820180604052508101906113d89190612dcf565b6020808601919091529084526000858152600282526040808220855173ffffffffffffffffffffffffffffffffffffffff168352909252205483518490611420908390613023565b90525060008481526002602090815260408083208583015173ffffffffffffffffffffffffffffffffffffffff1684528252909120549084018051611466908390613023565b9052506040805160c08101825285815284516020808301918252860151828401908152600060608401818152608085019182524260a0860190815295517f219f5d1700000000000000000000000000000000000000000000000000000000815285516004820152935160248501529151604484015290516064830152516084820152915160a48301529073c36442b4a4522e871399cd717abdd847ab11fe889063219f5d179060c401606060405180830381600087803b15801561152957600080fd5b505af115801561153d573d6000803e3d6000fd5b505050506040513d601f19601f820116820180604052508101906115619190612cf9565b6060870152604086015250825161157790611e84565b6080850152602083015161158a90611e84565b8460a00181815250506115ef60405180606001604052808660400151815260200186608001518152602001856040015160ff168152506040518060600160405280876060015181526020018760a001518152602001866060015160ff16815250611f98565b60c0850152608084015160a0850151611609918591611fbd565b60e085015260408401518451141561164c576116478584602001518560600151876020015188606001518960a001518a60c001518b60e00151612176565b6111af565b6111af85846020015185604001518760000151886040015189608001518a60c001518b60e00151612176565b60005b81518110156116b8576116a6828281518110611699576116996132e6565b6020026020010151611007565b806116b081613202565b91505061167b565b5050565b6116c4611d8e565b73ffffffffffffffffffffffffffffffffffffffff8116611767576040517f08c379a000000000000000000000000000000000000000000000000000000000815260206004820152602660248201527f4f776e61626c653a206e6577206f776e657220697320746865207a65726f206160448201527f646472657373000000000000000000000000000000000000000000000000000060648201526084016105b9565b61177081611e0f565b50565b60005b81518110156116b8576117a1828281518110611794576117946132e6565b6020026020010151611129565b806117ab81613202565b915050611776565b60008060008360020b126117ca578260020b6117d7565b8260020b6117d79061324f565b9050620d89e8811115611846576040517f08c379a000000000000000000000000000000000000000000000000000000000815260206004820152600160248201527f540000000000000000000000000000000000000000000000000000000000000060448201526064016105b9565b60006001821661186757700100000000000000000000000000000000611879565b6ffffcb933bd6fad37aa2d162d1a5940015b70ffffffffffffffffffffffffffffffffff16905060028216156118b85760806118b3826ffff97272373d413259a46990580e213a613179565b901c90505b60048216156118e25760806118dd826ffff2e50f5f656932ef12357cf3c7fdcc613179565b901c90505b600882161561190c576080611907826fffe5caca7e10e4e61c3624eaa0941cd0613179565b901c90505b6010821615611936576080611931826fffcb9843d60f6159c9db58835c926644613179565b901c90505b602082161561196057608061195b826fff973b41fa98c081472e6896dfb254c0613179565b901c90505b604082161561198a576080611985826fff2ea16466c96a3843ec78b326b52861613179565b901c90505b60808216156119b45760806119af826ffe5dee046a99a2a811c461f1969c3053613179565b901c90505b6101008216156119df5760806119da826ffcbe86c7900a88aedcffc83b479aa3a4613179565b901c90505b610200821615611a0a576080611a05826ff987a7253ac413176f2b074cf7815e54613179565b901c90505b610400821615611a35576080611a30826ff3392b0822b70005940c7a398e4b70f3613179565b901c90505b610800821615611a60576080611a5b826fe7159475a2c29b7443b29c7fa6e889d9613179565b901c90505b611000821615611a8b576080611a86826fd097f3bdfd2022b8845ad8f792aa5825613179565b901c90505b612000821615611ab6576080611ab1826fa9f746462d870fdf8a65dc1f90e061e5613179565b901c90505b614000821615611ae1576080611adc826f70d869a156d2a1b890bb3df62baf32f7613179565b901c90505b618000821615611b0c576080611b07826f31be135f97d08fd981231505542fcfa6613179565b901c90505b62010000821615611b38576080611b33826f09aa508b5b7a84e1c677de54f3e99bc9613179565b901c90505b62020000821615611b63576080611b5e826e5d6af8dedb81196699c329225ee604613179565b901c90505b62040000821615611b8d576080611b88826d2216e584f5fa1ea926041bedfe98613179565b901c90505b62080000821615611bb5576080611bb0826b048a170391f7dc42444e8fa2613179565b901c90505b60008460020b1315611bee57611beb817fffffffffffffffffffffffffffffffffffffffffffffffffffffffffffffffff61303b565b90505b611bfd6401000000008261323b565b15611c09576001611c0c565b60005b611c1d9060ff16602083901c613023565b949350505050565b6040805173ffffffffffffffffffffffffffffffffffffffff8481166024830152604480830185905283518084039091018152606490920183526020820180517bffffffffffffffffffffffffffffffffffffffffffffffffffffffff167f095ea7b3000000000000000000000000000000000000000000000000000000001790529151600092839290871691611cbc9190612eef565b6000604051808303816000865af19150503d8060008114611cf9576040519150601f19603f3d011682016040523d82523d6000602084013e611cfe565b606091505b5091509150818015611d28575080511580611d28575080806020019051810190611d289190612cc5565b6111af576040517f08c379a000000000000000000000000000000000000000000000000000000000815260206004820152600260248201527f534100000000000000000000000000000000000000000000000000000000000060448201526064016105b9565b60005473ffffffffffffffffffffffffffffffffffffffff163314611005576040517f08c379a000000000000000000000000000000000000000000000000000000000815260206004820181905260248201527f4f776e61626c653a2063616c6c6572206973206e6f7420746865206f776e657260448201526064016105b9565b6000805473ffffffffffffffffffffffffffffffffffffffff8381167fffffffffffffffffffffffff0000000000000000000000000000000000000000831681178455604051919092169283917f8be0079c531659141344cd1fd0a4f28419497f9722a3daafe3b4186f6b6457e09190a35050565b600073ffffffffffffffffffffffffffffffffffffffff821673c02aaa39b223fe8d0a0e5c4f27ead9083c756cc21415611ec75750670de0b6b3a7640000919050565b6040517fd4c282a300000000000000000000000000000000000000000000000000000000815273ffffffffffffffffffffffffffffffffffffffff8316600482015273eeeeeeeeeeeeeeeeeeeeeeeeeeeeeeeeeeeeeeee60248201527347fb2585d2c56fe188d0e6ec628a38b74fceeedf9063d4c282a39060440160206040518083038186803b158015611f5a57600080fd5b505afa158015611f6e573d6000803e3d6000fd5b505050506040513d601f19601f82011682018060405250810190611f929190612ce0565b92915050565b6000611fa3826123c2565b611fac846123c2565b611fb69190613023565b9392505050565b6000808460c0015173ffffffffffffffffffffffffffffffffffffffff16633850c7bd6040518163ffffffff1660e01b815260040160e06040518083038186803b15801561200a57600080fd5b505afa15801561201e573d6000803e3d6000fd5b505050506040513d601f19601f820116820180604052508101906120429190612d2e565b50505060e08901516040517f99fbab8800000000000000000000000000000000000000000000000000000000815294955060009473c36442b4a4522e871399cd717abdd847ab11fe8894506399fbab8893506120a5925060040190815260200190565b6101806040518083038186803b1580156120be57600080fd5b505afa1580156120d2573d6000803e3d6000fd5b505050506040513d601f19601f820116820180604052508101906120f69190612e0e565b5050505097505050505050505060008061211a8489608001518a60a00151866123e7565b9150915061216a60405180606001604052808481526020018981526020018a6040015160ff1681525060405180606001604052808481526020018981526020018b6060015160ff16815250611f98565b98975050505050505050565b60006121a96040518060600160405280878961219291906131eb565b81526020018681526020018960ff168152506123c2565b905060006121b6826124d1565b905060006121c482846131eb565b905060006121ee60405180606001604052808581526020018981526020018c60ff16815250612513565b9050600061221860405180606001604052808581526020018a81526020018d60ff16815250612513565b905080600260008f815260200190815260200160002060008e73ffffffffffffffffffffffffffffffffffffffff1673ffffffffffffffffffffffffffffffffffffffff168152602001908152602001600020600082825461227a9190613023565b9250508190555081600160003373ffffffffffffffffffffffffffffffffffffffff1673ffffffffffffffffffffffffffffffffffffffff16815260200190815260200160002060008e73ffffffffffffffffffffffffffffffffffffffff1673ffffffffffffffffffffffffffffffffffffffff168152602001908152602001600020600082825461230d9190613023565b9091555061232590506123208588613179565b612536565b87116123b3576040517f08c379a000000000000000000000000000000000000000000000000000000000815260206004820152602660248201527f446f65736e277420706173732074686520636f6d706f756e642072657175697260448201527f656d656e7473000000000000000000000000000000000000000000000000000060648201526084016105b9565b50505050505050505050505050565b6000611f92826000015183602001518460400151600a6123e291906130b0565b612699565b6000808373ffffffffffffffffffffffffffffffffffffffff168573ffffffffffffffffffffffffffffffffffffffff161115612422579293925b8473ffffffffffffffffffffffffffffffffffffffff168673ffffffffffffffffffffffffffffffffffffffff161161246757612460858585612767565b91506124c8565b8373ffffffffffffffffffffffffffffffffffffffff168673ffffffffffffffffffffffffffffffffffffffff1610156124ba576124a6868585612767565b91506124b3858785612824565b90506124c8565b6124c5858585612824565b90505b94509492505050565b6000806124e18360036064612699565b905060006124f23a620493e0613179565b90506124fe8183613023565b925082841161250c57600080fd5b5050919050565b80516040820151600091611f929161252c90600a6130b0565b8460200151612699565b60008161254557506000919050565b600182608081901c1561255d5760409190911b9060801c5b604081901c156125725760209190911b9060401c5b602081901c156125875760109190911b9060201c5b601081901c1561259c5760089190911b9060101c5b600881901c156125b15760049190911b9060081c5b600481901c156125c65760029190911b9060041c5b600281901c156125d857600182901b91505b60018285816125e9576125e96132b7565b048301901c91506001828581612601576126016132b7565b048301901c91506001828581612619576126196132b7565b048301901c91506001828581612631576126316132b7565b048301901c91506001828581612649576126496132b7565b048301901c91506001828581612661576126616132b7565b048301901c91506001828581612679576126796132b7565b048301901c9150611c1d82838681612693576126936132b7565b046128a7565b600080807fffffffffffffffffffffffffffffffffffffffffffffffffffffffffffffffff85870985870292508281108382030391505080600014156126f2578382816126e8576126e86132b7565b0492505050611fb6565b8084116126fe57600080fd5b60008486880960026001871981018816978890046003810283188082028403028082028403028082028403028082028403028082028403029081029092039091026000889003889004909101858311909403939093029303949094049190911702949350505050565b60008273ffffffffffffffffffffffffffffffffffffffff168473ffffffffffffffffffffffffffffffffffffffff1611156127a1579192915b73ffffffffffffffffffffffffffffffffffffffff841661281a7bffffffffffffffffffffffffffffffff000000000000000000000000606085901b166127e887876131b6565b73ffffffffffffffffffffffffffffffffffffffff168673ffffffffffffffffffffffffffffffffffffffff166128bd565b611c1d919061303b565b60008273ffffffffffffffffffffffffffffffffffffffff168473ffffffffffffffffffffffffffffffffffffffff16111561285e579192915b611c1d6fffffffffffffffffffffffffffffffff831661287e86866131b6565b73ffffffffffffffffffffffffffffffffffffffff166c010000000000000000000000006128bd565b60008183106128b65781611fb6565b5090919050565b600080807fffffffffffffffffffffffffffffffffffffffffffffffffffffffffffffffff8587098587029250828110838203039150508060001415612915576000841161290a57600080fd5b508290049050611fb6565b80841161292157600080fd5b600084868809808403938111909203919050600061294186196001613023565b86169586900495938490049360008190030460010190506129628184613179565b909317926000612973876003613179565b60021890506129828188613179565b61298d9060026131eb565b6129979082613179565b90506129a38188613179565b6129ae9060026131eb565b6129b89082613179565b90506129c48188613179565b6129cf9060026131eb565b6129d99082613179565b90506129e58188613179565b6129f09060026131eb565b6129fa9082613179565b9050612a068188613179565b612a119060026131eb565b612a1b9082613179565b9050612a278188613179565b612a329060026131eb565b612a3c9082613179565b9050612a488186613179565b9998505050505050505050565b8051612a6081613344565b919050565b80518015158114612a6057600080fd5b8051600281900b8114612a6057600080fd5b80516fffffffffffffffffffffffffffffffff81168114612a6057600080fd5b805161ffff81168114612a6057600080fd5b805162ffffff81168114612a6057600080fd5b805160ff81168114612a6057600080fd5b600060208284031215612aef57600080fd5b8135611fb681613344565b600060208284031215612b0c57600080fd5b8151611fb681613344565b600080600080600060808688031215612b2f57600080fd5b8535612b3a81613344565b94506020860135612b4a81613344565b935060408601359250606086013567ffffffffffffffff80821115612b6e57600080fd5b818801915088601f830112612b8257600080fd5b813581811115612b9157600080fd5b896020828501011115612ba357600080fd5b9699959850939650602001949392505050565b60008060408385031215612bc957600080fd5b8235612bd481613344565b946020939093013593505050565b60006020808385031215612bf557600080fd5b823567ffffffffffffffff80821115612c0d57600080fd5b818501915085601f830112612c2157600080fd5b813581811115612c3357612c33613315565b8060051b6040517fffffffffffffffffffffffffffffffffffffffffffffffffffffffffffffffe0603f83011681018181108582111715612c7657612c76613315565b604052828152858101935084860182860187018a1015612c9557600080fd5b600095505b83861015612cb8578035855260019590950194938601938601612c9a565b5098975050505050505050565b600060208284031215612cd757600080fd5b611fb682612a65565b600060208284031215612cf257600080fd5b5051919050565b600080600060608486031215612d0e57600080fd5b612d1784612a87565b925060208401519150604084015190509250925092565b600080600080600080600060e0888a031215612d4957600080fd5b8751612d5481613344565b9650612d6260208901612a75565b9550612d7060408901612aa7565b9450612d7e60608901612aa7565b9350612d8c60808901612aa7565b9250612d9a60a08901612acc565b9150612da860c08901612a65565b905092959891949750929550565b600060208284031215612dc857600080fd5b5035919050565b60008060408385031215612de257600080fd5b505080516020909101519092909150565b600060208284031215612e0557600080fd5b611fb682612acc565b6000806000806000806000806000806000806101808d8f031215612e3157600080fd5b8c516bffffffffffffffffffffffff81168114612e4d57600080fd5b9b50612e5b60208e01612a55565b9a50612e6960408e01612a55565b9950612e7760608e01612a55565b9850612e8560808e01612ab9565b9750612e9360a08e01612a75565b9650612ea160c08e01612a75565b9550612eaf60e08e01612a87565b94506101008d015193506101208d01519250612ece6101408e01612a87565b9150612edd6101608e01612a87565b90509295989b509295989b509295989b565b6000825160005b81811015612f105760208186018101518583015201612ef6565b81811115612f1f576000828501525b509190910192915050565b6020808252825182820181905260009190848201906040850190845b81811015612f6257835183529284019291840191600101612f46565b50909695505050505050565b60006101008201905073ffffffffffffffffffffffffffffffffffffffff80845116835280602085015116602084015260ff604085015116604084015260ff60608501511660608401528060808501511660808401525060a0830151612fec60a084018273ffffffffffffffffffffffffffffffffffffffff169052565b5060c083015161301460c084018273ffffffffffffffffffffffffffffffffffffffff169052565b5060e092830151919092015290565b6000821982111561303657613036613288565b500190565b60008261304a5761304a6132b7565b500490565b600181815b808511156130a857817fffffffffffffffffffffffffffffffffffffffffffffffffffffffffffffffff0482111561308e5761308e613288565b8085161561309b57918102915b93841c9390800290613054565b509250929050565b6000611fb660ff8416836000826130c957506001611f92565b816130d657506000611f92565b81600181146130ec57600281146130f657613112565b6001915050611f92565b60ff84111561310757613107613288565b50506001821b611f92565b5060208310610133831016604e8410600b8410161715613135575081810a611f92565b61313f838361304f565b807fffffffffffffffffffffffffffffffffffffffffffffffffffffffffffffffff0482111561317157613171613288565b029392505050565b6000817fffffffffffffffffffffffffffffffffffffffffffffffffffffffffffffffff04831182151516156131b1576131b1613288565b500290565b600073ffffffffffffffffffffffffffffffffffffffff838116908316818110156131e3576131e3613288565b039392505050565b6000828210156131fd576131fd613288565b500390565b60007fffffffffffffffffffffffffffffffffffffffffffffffffffffffffffffffff82141561323457613234613288565b5060010190565b60008261324a5761324a6132b7565b500690565b60007f800000000000000000000000000000000000000000000000000000000000000082141561328157613281613288565b5060000390565b7f4e487b7100000000000000000000000000000000000000000000000000000000600052601160045260246000fd5b7f4e487b7100000000000000000000000000000000000000000000000000000000600052601260045260246000fd5b7f4e487b7100000000000000000000000000000000000000000000000000000000600052603260045260246000fd5b7f4e487b7100000000000000000000000000000000000000000000000000000000600052604160045260246000fd5b73ffffffffffffffffffffffffffffffffffffffff8116811461177057600080fdfea2646970667358221220afd8fb83185d28010b08bfa96d0c2f9ea49e9abfb591b0c89c9c13113f874dc564736f6c63430008060033","abi":[{"anonymous":false,"inputs":[{"indexed":true,"internalType":"address","name":"previousOwner","type":"address"},{"indexed":true,"internalType":"address","name":"newOwner","type":"address"}],"name":"OwnershipTransferred","type":"event"},{"inputs":[{"internalType":"address","name":"addy","type":"address"}],"name":"addressOwns","outputs":[{"internalType":"uint256[]","name":"","type":"uint256[]"}],"stateMutability":"view","type":"function"},{"inputs":[{"internalType":"address","name":"","type":"address"},{"internalType":"uint256","name":"","type":"uint256"}],"name":"addressToTokenIds","outputs":[{"internalType":"uint256","name":"","type":"uint256"}],"stateMutability":"view","type":"function"},{"inputs":[{"internalType":"uint256","name":"tokenID","type":"uint256"}],"name":"doSingleUpkeep","outputs":[],"stateMutability":"nonpayable","type":"function"},{"inputs":[{"internalType":"address","name":"operator","type":"address"},{"internalType":"address","name":"from","type":"address"},{"internalType":"uint256","name":"tokenID","type":"uint256"},{"internalType":"bytes","name":"data","type":"bytes"}],"name":"onERC721Received","outputs":[{"internalType":"bytes4","name":"","type":"bytes4"}],"stateMutability":"nonpayable","type":"function"},{"inputs":[],"name":"owner","outputs":[{"internalType":"address","name":"","type":"address"}],"stateMutability":"view","type":"function"},{"inputs":[{"internalType":"uint256","name":"tokenID","type":"uint256"}],"name":"ownerOfTokenID","outputs":[{"internalType":"address","name":"","type":"address"}],"stateMutability":"view","type":"function"},{"inputs":[{"internalType":"uint256","name":"tokenID","type":"uint256"}],"name":"positionOfTokenID","outputs":[{"components":[{"internalType":"address","name":"token0","type":"address"},{"internalType":"address","name":"token1","type":"address"},{"internalType":"uint8","name":"decimals0","type":"uint8"},{"internalType":"uint8","name":"decimals1","type":"uint8"},{"internalType":"uint160","name":"sqrtPrice0X96","type":"uint160"},{"internalType":"uint160","name":"sqrtPrice1X96","type":"uint160"},{"internalType":"contract IUniswapV3Pool","name":"pool","type":"address"},{"internalType":"uint256","name":"tokenID","type":"uint256"}],"internalType":"struct Compounder.Position","name":"","type":"tuple"}],"stateMutability":"view","type":"function"},{"inputs":[],"name":"renounceOwnership","outputs":[],"stateMutability":"nonpayable","type":"function"},{"inputs":[{"internalType":"uint256","name":"index","type":"uint256"}],"name":"retrieve","outputs":[],"stateMutability":"nonpayable","type":"function"},{"inputs":[{"internalType":"uint256[]","name":"indexes","type":"uint256[]"}],"name":"retrieveMultiple","outputs":[],"stateMutability":"nonpayable","type":"function"},{"inputs":[{"internalType":"uint256","name":"tokenID","type":"uint256"}],"name":"send","outputs":[],"stateMutability":"nonpayable","type":"function"},{"inputs":[{"internalType":"uint256[]","name":"tokenIDs","type":"uint256[]"}],"name":"sendMultiple","outputs":[],"stateMutability":"nonpayable","type":"function"},{"inputs":[{"internalType":"uint256","name":"","type":"uint256"}],"name":"tokenIDtoAddress","outputs":[{"internalType":"address","name":"","type":"address"}],"stateMutability":"view","type":"function"},{"inputs":[{"internalType":"uint256","name":"","type":"uint256"}],"name":"tokenIDtoPosition","outputs":[{"internalType":"address","name":"token0","type":"address"},{"internalType":"address","name":"token1","type":"address"},{"internalType":"uint8","name":"decimals0","type":"uint8"},{"internalType":"uint8","name":"decimals1","type":"uint8"},{"internalType":"uint160","name":"sqrtPrice0X96","type":"uint160"},{"internalType":"uint160","name":"sqrtPrice1X96","type":"uint160"},{"internalType":"contract IUniswapV3Pool","name":"pool","type":"address"},{"internalType":"uint256","name":"tokenID","type":"uint256"}],"stateMutability":"view","type":"function"},{"inputs":[{"internalType":"address","name":"newOwner","type":"address"}],"name":"transferOwnership","outputs":[],"stateMutability":"nonpayable","type":"function"}]}